{
  "_format": "hh-sol-artifact-1",
  "contractName": "TrophyRoomClub",
  "sourceName": "contracts/TrophyRoomClub.sol",
  "abi": [
    {
      "inputs": [],
      "stateMutability": "payable",
      "type": "constructor"
    },
    {
      "anonymous": false,
      "inputs": [
        {
          "indexed": true,
          "internalType": "address",
          "name": "owner",
          "type": "address"
        },
        {
          "indexed": true,
          "internalType": "address",
          "name": "approved",
          "type": "address"
        },
        {
          "indexed": true,
          "internalType": "uint256",
          "name": "tokenId",
          "type": "uint256"
        }
      ],
      "name": "Approval",
      "type": "event"
    },
    {
      "anonymous": false,
      "inputs": [
        {
          "indexed": true,
          "internalType": "address",
          "name": "owner",
          "type": "address"
        },
        {
          "indexed": true,
          "internalType": "address",
          "name": "operator",
          "type": "address"
        },
        {
          "indexed": false,
          "internalType": "bool",
          "name": "approved",
          "type": "bool"
        }
      ],
      "name": "ApprovalForAll",
      "type": "event"
    },
    {
      "anonymous": false,
      "inputs": [
        {
          "indexed": false,
          "internalType": "uint256",
          "name": "tokenId",
          "type": "uint256"
        },
        {
          "indexed": false,
          "internalType": "address",
          "name": "owner",
          "type": "address"
        }
      ],
      "name": "Minted",
      "type": "event"
    },
    {
      "anonymous": false,
      "inputs": [
        {
          "indexed": true,
          "internalType": "address",
          "name": "previousOwner",
          "type": "address"
        },
        {
          "indexed": true,
          "internalType": "address",
          "name": "newOwner",
          "type": "address"
        }
      ],
      "name": "OwnershipTransferred",
      "type": "event"
    },
    {
      "anonymous": false,
      "inputs": [
        {
          "indexed": true,
          "internalType": "address",
          "name": "from",
          "type": "address"
        },
        {
          "indexed": true,
          "internalType": "address",
          "name": "to",
          "type": "address"
        },
        {
          "indexed": true,
          "internalType": "uint256",
          "name": "tokenId",
          "type": "uint256"
        }
      ],
      "name": "Transfer",
      "type": "event"
    },
    {
      "inputs": [],
      "name": "MAX_SUPPLY",
      "outputs": [
        {
          "internalType": "uint256",
          "name": "",
          "type": "uint256"
        }
      ],
      "stateMutability": "view",
      "type": "function"
    },
    {
      "inputs": [],
      "name": "PRESALE_PRICE",
      "outputs": [
        {
          "internalType": "uint256",
          "name": "",
          "type": "uint256"
        }
      ],
      "stateMutability": "view",
      "type": "function"
    },
    {
      "inputs": [],
      "name": "PRESALE_SUPPLY",
      "outputs": [
        {
          "internalType": "uint256",
          "name": "",
          "type": "uint256"
        }
      ],
      "stateMutability": "view",
      "type": "function"
    },
    {
      "inputs": [],
      "name": "PUBLIC_PRICE",
      "outputs": [
        {
          "internalType": "uint256",
          "name": "",
          "type": "uint256"
        }
      ],
      "stateMutability": "view",
      "type": "function"
    },
    {
      "inputs": [
        {
          "internalType": "address[]",
          "name": "addresses",
          "type": "address[]"
        }
      ],
      "name": "addToPresaleList",
      "outputs": [],
      "stateMutability": "nonpayable",
      "type": "function"
    },
    {
      "inputs": [
        {
          "internalType": "address",
          "name": "to",
          "type": "address"
        },
        {
          "internalType": "uint256",
          "name": "tokenId",
          "type": "uint256"
        }
      ],
      "name": "approve",
      "outputs": [],
      "stateMutability": "nonpayable",
      "type": "function"
    },
    {
      "inputs": [
        {
          "internalType": "address",
          "name": "owner",
          "type": "address"
        }
      ],
      "name": "balanceOf",
      "outputs": [
        {
          "internalType": "uint256",
          "name": "",
          "type": "uint256"
        }
      ],
      "stateMutability": "view",
      "type": "function"
    },
    {
      "inputs": [],
      "name": "baseExtension",
      "outputs": [
        {
          "internalType": "string",
          "name": "",
          "type": "string"
        }
      ],
      "stateMutability": "view",
      "type": "function"
    },
    {
      "inputs": [
        {
          "internalType": "uint256",
          "name": "maxSupply_",
          "type": "uint256"
        }
      ],
      "name": "changeMaxSupply",
      "outputs": [],
      "stateMutability": "nonpayable",
      "type": "function"
    },
    {
      "inputs": [
        {
          "internalType": "uint256",
          "name": "maxMint_",
          "type": "uint256"
        }
      ],
      "name": "changePresaleMaxMint",
      "outputs": [],
      "stateMutability": "nonpayable",
      "type": "function"
    },
    {
      "inputs": [
        {
          "internalType": "uint256",
          "name": "price",
          "type": "uint256"
        }
      ],
      "name": "changePresalePrice",
      "outputs": [],
      "stateMutability": "nonpayable",
      "type": "function"
    },
    {
      "inputs": [
        {
          "internalType": "uint256",
          "name": "maxMint_",
          "type": "uint256"
        }
      ],
      "name": "changePublicMaxMint",
      "outputs": [],
      "stateMutability": "nonpayable",
      "type": "function"
    },
    {
      "inputs": [
        {
          "internalType": "uint256",
          "name": "price",
          "type": "uint256"
        }
      ],
      "name": "changePublicSalePrice",
      "outputs": [],
      "stateMutability": "nonpayable",
      "type": "function"
    },
    {
      "inputs": [
        {
          "internalType": "uint256",
          "name": "tokenId",
          "type": "uint256"
        }
      ],
      "name": "getApproved",
      "outputs": [
        {
          "internalType": "address",
          "name": "",
          "type": "address"
        }
      ],
      "stateMutability": "view",
      "type": "function"
    },
    {
      "inputs": [
        {
          "internalType": "address",
          "name": "owner",
          "type": "address"
        },
        {
          "internalType": "address",
          "name": "operator",
          "type": "address"
        }
      ],
      "name": "isApprovedForAll",
      "outputs": [
        {
          "internalType": "bool",
          "name": "",
          "type": "bool"
        }
      ],
      "stateMutability": "view",
      "type": "function"
    },
    {
      "inputs": [],
      "name": "maxMint",
      "outputs": [
        {
          "internalType": "uint256",
          "name": "",
          "type": "uint256"
        }
      ],
      "stateMutability": "view",
      "type": "function"
    },
    {
      "inputs": [],
      "name": "name",
      "outputs": [
        {
          "internalType": "string",
          "name": "",
          "type": "string"
        }
      ],
      "stateMutability": "view",
      "type": "function"
    },
    {
      "inputs": [
        {
          "internalType": "address",
          "name": "addr",
          "type": "address"
        }
      ],
      "name": "onPreSaleList",
      "outputs": [
        {
          "internalType": "bool",
          "name": "",
          "type": "bool"
        }
      ],
      "stateMutability": "view",
      "type": "function"
    },
    {
      "inputs": [],
      "name": "owner",
      "outputs": [
        {
          "internalType": "address",
          "name": "",
          "type": "address"
        }
      ],
      "stateMutability": "view",
      "type": "function"
    },
    {
      "inputs": [
        {
          "internalType": "uint256",
          "name": "tokenId",
          "type": "uint256"
        }
      ],
      "name": "ownerOf",
      "outputs": [
        {
          "internalType": "address",
          "name": "",
          "type": "address"
        }
      ],
      "stateMutability": "view",
      "type": "function"
    },
    {
      "inputs": [],
      "name": "preSaleActive",
      "outputs": [
        {
          "internalType": "bool",
          "name": "",
          "type": "bool"
        }
      ],
      "stateMutability": "view",
      "type": "function"
    },
    {
      "inputs": [],
      "name": "presaleMaxMint",
      "outputs": [
        {
          "internalType": "uint256",
          "name": "",
          "type": "uint256"
        }
      ],
      "stateMutability": "view",
      "type": "function"
    },
    {
      "inputs": [
        {
          "internalType": "uint256",
          "name": "quantity_",
          "type": "uint256"
        }
      ],
      "name": "presaleMint",
      "outputs": [],
      "stateMutability": "payable",
      "type": "function"
    },
    {
      "inputs": [
        {
          "internalType": "uint256",
          "name": "quantity_",
          "type": "uint256"
        }
      ],
      "name": "publicMint",
      "outputs": [],
      "stateMutability": "payable",
      "type": "function"
    },
    {
      "inputs": [],
      "name": "publicSaleActive",
      "outputs": [
        {
          "internalType": "bool",
          "name": "",
          "type": "bool"
        }
      ],
      "stateMutability": "view",
      "type": "function"
    },
    {
      "inputs": [
        {
          "internalType": "address[]",
          "name": "addresses",
          "type": "address[]"
        }
      ],
      "name": "removeFromPresaleList",
      "outputs": [],
      "stateMutability": "nonpayable",
      "type": "function"
    },
    {
      "inputs": [],
      "name": "renounceOwnership",
      "outputs": [],
      "stateMutability": "nonpayable",
      "type": "function"
    },
    {
      "inputs": [
        {
          "internalType": "address",
          "name": "to",
          "type": "address"
        },
        {
          "internalType": "uint256",
          "name": "quantity",
          "type": "uint256"
        }
      ],
      "name": "reserveTokens",
      "outputs": [],
      "stateMutability": "nonpayable",
      "type": "function"
    },
    {
      "inputs": [
        {
          "internalType": "address",
          "name": "from",
          "type": "address"
        },
        {
          "internalType": "address",
          "name": "to",
          "type": "address"
        },
        {
          "internalType": "uint256",
          "name": "tokenId",
          "type": "uint256"
        }
      ],
      "name": "safeTransferFrom",
      "outputs": [],
      "stateMutability": "nonpayable",
      "type": "function"
    },
    {
      "inputs": [
        {
          "internalType": "address",
          "name": "from",
          "type": "address"
        },
        {
          "internalType": "address",
          "name": "to",
          "type": "address"
        },
        {
          "internalType": "uint256",
          "name": "tokenId",
          "type": "uint256"
        },
        {
          "internalType": "bytes",
          "name": "_data",
          "type": "bytes"
        }
      ],
      "name": "safeTransferFrom",
      "outputs": [],
      "stateMutability": "nonpayable",
      "type": "function"
    },
    {
      "inputs": [
        {
          "internalType": "address",
          "name": "operator",
          "type": "address"
        },
        {
          "internalType": "bool",
          "name": "approved",
          "type": "bool"
        }
      ],
      "name": "setApprovalForAll",
      "outputs": [],
      "stateMutability": "nonpayable",
      "type": "function"
    },
    {
      "inputs": [
        {
          "internalType": "string",
          "name": "_newExtension",
          "type": "string"
        }
      ],
      "name": "setBaseExtension",
      "outputs": [],
      "stateMutability": "nonpayable",
      "type": "function"
    },
    {
      "inputs": [
        {
          "internalType": "string",
          "name": "baseTokenUri_",
          "type": "string"
        }
      ],
      "name": "setBaseTokenUri",
      "outputs": [],
      "stateMutability": "nonpayable",
      "type": "function"
    },
    {
      "inputs": [
        {
          "internalType": "bool",
          "name": "preSaleActive_",
          "type": "bool"
        }
      ],
      "name": "setPreSaleActive",
      "outputs": [],
      "stateMutability": "nonpayable",
      "type": "function"
    },
    {
      "inputs": [
        {
          "internalType": "bool",
          "name": "publicSaleActive_",
          "type": "bool"
        }
      ],
      "name": "setPublicSaleActive",
      "outputs": [],
      "stateMutability": "nonpayable",
      "type": "function"
    },
    {
      "inputs": [
        {
          "internalType": "bytes4",
          "name": "interfaceId",
          "type": "bytes4"
        }
      ],
      "name": "supportsInterface",
      "outputs": [
        {
          "internalType": "bool",
          "name": "",
          "type": "bool"
        }
      ],
      "stateMutability": "view",
      "type": "function"
    },
    {
      "inputs": [],
      "name": "symbol",
      "outputs": [
        {
          "internalType": "string",
          "name": "",
          "type": "string"
        }
      ],
      "stateMutability": "view",
      "type": "function"
    },
    {
      "inputs": [],
      "name": "teamReserve",
      "outputs": [
        {
          "internalType": "uint256",
          "name": "",
          "type": "uint256"
        }
      ],
      "stateMutability": "view",
      "type": "function"
    },
    {
      "inputs": [
        {
          "internalType": "uint256",
          "name": "index",
          "type": "uint256"
        }
      ],
      "name": "tokenByIndex",
      "outputs": [
        {
          "internalType": "uint256",
          "name": "",
          "type": "uint256"
        }
      ],
      "stateMutability": "view",
      "type": "function"
    },
    {
      "inputs": [
        {
          "internalType": "address",
          "name": "owner",
          "type": "address"
        },
        {
          "internalType": "uint256",
          "name": "index",
          "type": "uint256"
        }
      ],
      "name": "tokenOfOwnerByIndex",
      "outputs": [
        {
          "internalType": "uint256",
          "name": "",
          "type": "uint256"
        }
      ],
      "stateMutability": "view",
      "type": "function"
    },
    {
      "inputs": [
        {
          "internalType": "uint256",
          "name": "tokenId_",
          "type": "uint256"
        }
      ],
      "name": "tokenURI",
      "outputs": [
        {
          "internalType": "string",
          "name": "",
          "type": "string"
        }
      ],
      "stateMutability": "view",
      "type": "function"
    },
    {
      "inputs": [],
      "name": "totalSupply",
      "outputs": [
        {
          "internalType": "uint256",
          "name": "",
          "type": "uint256"
        }
      ],
      "stateMutability": "view",
      "type": "function"
    },
    {
      "inputs": [
        {
          "internalType": "address",
          "name": "from",
          "type": "address"
        },
        {
          "internalType": "address",
          "name": "to",
          "type": "address"
        },
        {
          "internalType": "uint256",
          "name": "tokenId",
          "type": "uint256"
        }
      ],
      "name": "transferFrom",
      "outputs": [],
      "stateMutability": "nonpayable",
      "type": "function"
    },
    {
      "inputs": [
        {
          "internalType": "address",
          "name": "newOwner",
          "type": "address"
        }
      ],
      "name": "transferOwnership",
      "outputs": [],
      "stateMutability": "nonpayable",
      "type": "function"
    },
    {
      "inputs": [
        {
          "internalType": "uint256",
          "name": "newLimit",
          "type": "uint256"
        }
      ],
      "name": "updatePresaleSupply",
      "outputs": [],
      "stateMutability": "nonpayable",
      "type": "function"
    },
    {
      "inputs": [
        {
          "internalType": "address",
          "name": "",
          "type": "address"
        }
      ],
      "name": "walletMints",
      "outputs": [
        {
          "internalType": "uint256",
          "name": "",
          "type": "uint256"
        }
      ],
      "stateMutability": "view",
      "type": "function"
    },
    {
      "inputs": [],
      "name": "withdraw",
      "outputs": [],
      "stateMutability": "nonpayable",
      "type": "function"
    },
    {
      "inputs": [],
      "name": "withdrawWallet",
      "outputs": [
        {
          "internalType": "address payable",
          "name": "",
          "type": "address"
        }
      ],
      "stateMutability": "view",
      "type": "function"
    }
  ],
  "bytecode": "0x6080604052600a600b55662386f26fc10000600c556103e8600d556000600e60006101000a81548160ff0219169083151502179055506002600f5567016345785d8a00006012556000601360006101000a81548160ff021916908315150217905550610abe60145560056015556040518060400160405280600581526020017f2e6a736f6e00000000000000000000000000000000000000000000000000000081525060179080519060200190620000b99291906200024e565b506040518060400160405280600e81526020017f54726f706879526f6f6d436c75620000000000000000000000000000000000008152506040518060400160405280600381526020017f545243000000000000000000000000000000000000000000000000000000000081525081600090805190602001906200013e9291906200024e565b508060019080519060200190620001579291906200024e565b5050506200017a6200016e6200018060201b60201c565b6200018860201b60201c565b62000363565b600033905090565b6000600660009054906101000a900473ffffffffffffffffffffffffffffffffffffffff16905081600660006101000a81548173ffffffffffffffffffffffffffffffffffffffff021916908373ffffffffffffffffffffffffffffffffffffffff1602179055508173ffffffffffffffffffffffffffffffffffffffff168173ffffffffffffffffffffffffffffffffffffffff167f8be0079c531659141344cd1fd0a4f28419497f9722a3daafe3b4186f6b6457e060405160405180910390a35050565b8280546200025c90620002fe565b90600052602060002090601f016020900481019282620002805760008555620002cc565b82601f106200029b57805160ff1916838001178555620002cc565b82800160010185558215620002cc579182015b82811115620002cb578251825591602001919060010190620002ae565b5b509050620002db9190620002df565b5090565b5b80821115620002fa576000816000905550600101620002e0565b5090565b600060028204905060018216806200031757607f821691505b602082108114156200032e576200032d62000334565b5b50919050565b7f4e487b7100000000000000000000000000000000000000000000000000000000600052602260045260246000fd5b61577580620003736000396000f3fe6080604052600436106102935760003560e01c806373138e4f1161015a578063b179e060116100c1578063cf4039fe1161007a578063cf4039fe146109d2578063da3ef23f146109fb578063e2e06fa314610a24578063e985e9c514610a4d578063f0293fd314610a8a578063f2fde38b14610ac757610293565b8063b179e060146108d1578063b88d4fde146108fa578063bc8893b414610923578063c66828621461094e578063c87b56dd14610979578063c9b298f1146109b657610293565b80638da5cb5b116101135780638da5cb5b146107d5578063946ef42a1461080057806395652cfa1461082b57806395d89b4114610854578063a22cb4651461087f578063b1514cb5146108a857610293565b806373138e4f146106d75780637501f7411461070257806378cf19e91461072d578063844947081461075657806385d178f4146107815780638606d938146107ac57610293565b806342842e0e116101fe57806362dc6e21116101b757806362dc6e21146105c95780636352211e146105f457806364d2e9d01461063157806370a082311461065a578063715018a6146106975780637204a3c9146106ae57610293565b806342842e0e146104bb5780634287f14a146104e45780634f6ccce71461050f5780634fda72851461054c578063594ca30a14610575578063611f3f101461059e57610293565b806323b872dd1161025057806323b872dd146103ce5780632db11544146103f75780632f745c591461041357806332cb6b0c146104505780633ccfd60b1461047b578063404c7cdd1461049257610293565b806301ffc9a71461029857806306fdde03146102d5578063081812fc14610300578063095ea7b31461033d57806311576b791461036657806318160ddd146103a3575b600080fd5b3480156102a457600080fd5b506102bf60048036038101906102ba9190613fe8565b610af0565b6040516102cc919061474c565b60405180910390f35b3480156102e157600080fd5b506102ea610b02565b6040516102f79190614767565b60405180910390f35b34801561030c57600080fd5b50610327600480360381019061032291906140c0565b610b94565b60405161033491906146ca565b60405180910390f35b34801561034957600080fd5b50610364600480360381019061035f9190613f3e565b610c19565b005b34801561037257600080fd5b5061038d60048036038101906103889190613dd3565b610d31565b60405161039a919061474c565b60405180910390f35b3480156103af57600080fd5b506103b8610d87565b6040516103c59190614b49565b60405180910390f35b3480156103da57600080fd5b506103f560048036038101906103f09190613e38565b610d94565b005b610411600480360381019061040c91906140c0565b610df4565b005b34801561041f57600080fd5b5061043a60048036038101906104359190613f3e565b611074565b6040516104479190614b49565b60405180910390f35b34801561045c57600080fd5b50610465611119565b6040516104729190614b49565b60405180910390f35b34801561048757600080fd5b5061049061111f565b005b34801561049e57600080fd5b506104b960048036038101906104b491906140c0565b61126c565b005b3480156104c757600080fd5b506104e260048036038101906104dd9190613e38565b6112f2565b005b3480156104f057600080fd5b506104f9611312565b6040516105069190614b49565b60405180910390f35b34801561051b57600080fd5b50610536600480360381019061053191906140c0565b611318565b6040516105439190614b49565b60405180910390f35b34801561055857600080fd5b50610573600480360381019061056e91906140c0565b6113af565b005b34801561058157600080fd5b5061059c600480360381019061059791906140c0565b611435565b005b3480156105aa57600080fd5b506105b36114bb565b6040516105c09190614b49565b60405180910390f35b3480156105d557600080fd5b506105de6114c1565b6040516105eb9190614b49565b60405180910390f35b34801561060057600080fd5b5061061b600480360381019061061691906140c0565b6114c7565b60405161062891906146ca565b60405180910390f35b34801561063d57600080fd5b5061065860048036038101906106539190613fbf565b611579565b005b34801561066657600080fd5b50610681600480360381019061067c9190613dd3565b611612565b60405161068e9190614b49565b60405180910390f35b3480156106a357600080fd5b506106ac6116ca565b005b3480156106ba57600080fd5b506106d560048036038101906106d09190613f7a565b611752565b005b3480156106e357600080fd5b506106ec611956565b6040516106f99190614b49565b60405180910390f35b34801561070e57600080fd5b5061071761195c565b6040516107249190614b49565b60405180910390f35b34801561073957600080fd5b50610754600480360381019061074f9190613f3e565b611962565b005b34801561076257600080fd5b5061076b611aa9565b604051610778919061474c565b60405180910390f35b34801561078d57600080fd5b50610796611abc565b6040516107a391906146e5565b60405180910390f35b3480156107b857600080fd5b506107d360048036038101906107ce91906140c0565b611ae2565b005b3480156107e157600080fd5b506107ea611b68565b6040516107f791906146ca565b60405180910390f35b34801561080c57600080fd5b50610815611b92565b6040516108229190614b49565b60405180910390f35b34801561083757600080fd5b50610852600480360381019061084d919061403a565b611b98565b005b34801561086057600080fd5b50610869611c2a565b6040516108769190614767565b60405180910390f35b34801561088b57600080fd5b506108a660048036038101906108a19190613f02565b611cbc565b005b3480156108b457600080fd5b506108cf60048036038101906108ca91906140c0565b611cd2565b005b3480156108dd57600080fd5b506108f860048036038101906108f39190613f7a565b611d58565b005b34801561090657600080fd5b50610921600480360381019061091c9190613e87565b611f5c565b005b34801561092f57600080fd5b50610938611fbe565b604051610945919061474c565b60405180910390f35b34801561095a57600080fd5b50610963611fd1565b6040516109709190614767565b60405180910390f35b34801561098557600080fd5b506109a0600480360381019061099b91906140c0565b61205f565b6040516109ad9190614767565b60405180910390f35b6109d060048036038101906109cb91906140c0565b6120de565b005b3480156109de57600080fd5b506109f960048036038101906109f491906140c0565b612431565b005b348015610a0757600080fd5b50610a226004803603810190610a1d919061407f565b6124b7565b005b348015610a3057600080fd5b50610a4b6004803603810190610a469190613fbf565b61254d565b005b348015610a5957600080fd5b50610a746004803603810190610a6f9190613dfc565b6125e6565b604051610a81919061474c565b60405180910390f35b348015610a9657600080fd5b50610ab16004803603810190610aac9190613dd3565b61267a565b604051610abe9190614b49565b60405180910390f35b348015610ad357600080fd5b50610aee6004803603810190610ae99190613dd3565b612692565b005b6000610afb8261278a565b9050919050565b606060008054610b1190614e54565b80601f0160208091040260200160405190810160405280929190818152602001828054610b3d90614e54565b8015610b8a5780601f10610b5f57610100808354040283529160200191610b8a565b820191906000526020600020905b815481529060010190602001808311610b6d57829003601f168201915b5050505050905090565b6000610b9f82612804565b610bde576040517f08c379a0000000000000000000000000000000000000000000000000000000008152600401610bd5906149e9565b60405180910390fd5b6004600083815260200190815260200160002060009054906101000a900473ffffffffffffffffffffffffffffffffffffffff169050919050565b6000610c24826114c7565b90508073ffffffffffffffffffffffffffffffffffffffff168373ffffffffffffffffffffffffffffffffffffffff161415610c95576040517f08c379a0000000000000000000000000000000000000000000000000000000008152600401610c8c90614a49565b60405180910390fd5b8073ffffffffffffffffffffffffffffffffffffffff16610cb4612870565b73ffffffffffffffffffffffffffffffffffffffff161480610ce35750610ce281610cdd612870565b6125e6565b5b610d22576040517f08c379a0000000000000000000000000000000000000000000000000000000008152600401610d1990614949565b60405180910390fd5b610d2c8383612878565b505050565b6000601060008373ffffffffffffffffffffffffffffffffffffffff1673ffffffffffffffffffffffffffffffffffffffff16815260200190815260200160002060009054906101000a900460ff169050919050565b6000600980549050905090565b610da5610d9f612870565b82612931565b610de4576040517f08c379a0000000000000000000000000000000000000000000000000000000008152600401610ddb90614a69565b60405180910390fd5b610def838383612a0f565b505050565b601360009054906101000a900460ff16610e43576040517f08c379a0000000000000000000000000000000000000000000000000000000008152600401610e3a90614909565b60405180910390fd5b600081118015610e5557506015548111155b610e94576040517f08c379a0000000000000000000000000000000000000000000000000000000008152600401610e8b906147a9565b60405180910390fd5b600c5481610ea29190614cfe565b3414610ee3576040517f08c379a0000000000000000000000000000000000000000000000000000000008152600401610eda90614789565b60405180910390fd5b601454610f0082610ef2610d87565b612c7690919063ffffffff16565b1115610f41576040517f08c379a0000000000000000000000000000000000000000000000000000000008152600401610f38906149a9565b60405180910390fd5b610f5681601254612c8c90919063ffffffff16565b341015610f98576040517f08c379a0000000000000000000000000000000000000000000000000000000008152600401610f8f906148c9565b60405180910390fd5b60005b81811015611070576000610fc06001610fb2610d87565b612c7690919063ffffffff16565b90506001601160003373ffffffffffffffffffffffffffffffffffffffff1673ffffffffffffffffffffffffffffffffffffffff16815260200190815260200160002060008282546110129190614c77565b925050819055506110233382612ca2565b7fb9203d657e9c0ec8274c818292ab0f58b04e1970050716891770eb1bab5d655e8133604051611054929190614b64565b60405180910390a150808061106890614eb7565b915050610f9b565b5050565b600061107f83611612565b82106110c0576040517f08c379a00000000000000000000000000000000000000000000000000000000081526004016110b7906147c9565b60405180910390fd5b600760008473ffffffffffffffffffffffffffffffffffffffff1673ffffffffffffffffffffffffffffffffffffffff168152602001908152602001600020600083815260200190815260200160002054905092915050565b60145481565b611127612870565b73ffffffffffffffffffffffffffffffffffffffff16611145611b68565b73ffffffffffffffffffffffffffffffffffffffff161461119b576040517f08c379a000000000000000000000000000000000000000000000000000000000815260040161119290614a09565b60405180910390fd5b6000601860009054906101000a900473ffffffffffffffffffffffffffffffffffffffff1673ffffffffffffffffffffffffffffffffffffffff16476040516111e3906146b5565b60006040518083038185875af1925050503d8060008114611220576040519150601f19603f3d011682016040523d82523d6000602084013e611225565b606091505b5050905080611269576040517f08c379a000000000000000000000000000000000000000000000000000000000815260040161126090614b09565b60405180910390fd5b50565b611274612870565b73ffffffffffffffffffffffffffffffffffffffff16611292611b68565b73ffffffffffffffffffffffffffffffffffffffff16146112e8576040517f08c379a00000000000000000000000000000000000000000000000000000000081526004016112df90614a09565b60405180910390fd5b8060148190555050565b61130d83838360405180602001604052806000815250611f5c565b505050565b600b5481565b6000611322610d87565b8210611363576040517f08c379a000000000000000000000000000000000000000000000000000000000815260040161135a90614a89565b60405180910390fd5b6009828154811061139d577f4e487b7100000000000000000000000000000000000000000000000000000000600052603260045260246000fd5b90600052602060002001549050919050565b6113b7612870565b73ffffffffffffffffffffffffffffffffffffffff166113d5611b68565b73ffffffffffffffffffffffffffffffffffffffff161461142b576040517f08c379a000000000000000000000000000000000000000000000000000000000815260040161142290614a09565b60405180910390fd5b8060128190555050565b61143d612870565b73ffffffffffffffffffffffffffffffffffffffff1661145b611b68565b73ffffffffffffffffffffffffffffffffffffffff16146114b1576040517f08c379a00000000000000000000000000000000000000000000000000000000081526004016114a890614a09565b60405180910390fd5b8060158190555050565b60125481565b600c5481565b6000806002600084815260200190815260200160002060009054906101000a900473ffffffffffffffffffffffffffffffffffffffff169050600073ffffffffffffffffffffffffffffffffffffffff168173ffffffffffffffffffffffffffffffffffffffff161415611570576040517f08c379a000000000000000000000000000000000000000000000000000000000815260040161156790614989565b60405180910390fd5b80915050919050565b611581612870565b73ffffffffffffffffffffffffffffffffffffffff1661159f611b68565b73ffffffffffffffffffffffffffffffffffffffff16146115f5576040517f08c379a00000000000000000000000000000000000000000000000000000000081526004016115ec90614a09565b60405180910390fd5b80600e60006101000a81548160ff02191690831515021790555050565b60008073ffffffffffffffffffffffffffffffffffffffff168273ffffffffffffffffffffffffffffffffffffffff161415611683576040517f08c379a000000000000000000000000000000000000000000000000000000000815260040161167a90614969565b60405180910390fd5b600360008373ffffffffffffffffffffffffffffffffffffffff1673ffffffffffffffffffffffffffffffffffffffff168152602001908152602001600020549050919050565b6116d2612870565b73ffffffffffffffffffffffffffffffffffffffff166116f0611b68565b73ffffffffffffffffffffffffffffffffffffffff1614611746576040517f08c379a000000000000000000000000000000000000000000000000000000000815260040161173d90614a09565b60405180910390fd5b6117506000612cc0565b565b61175a612870565b73ffffffffffffffffffffffffffffffffffffffff16611778611b68565b73ffffffffffffffffffffffffffffffffffffffff16146117ce576040517f08c379a00000000000000000000000000000000000000000000000000000000081526004016117c590614a09565b60405180910390fd5b60005b8282905081101561195157600073ffffffffffffffffffffffffffffffffffffffff1683838381811061182d577f4e487b7100000000000000000000000000000000000000000000000000000000600052603260045260246000fd5b90506020020160208101906118429190613dd3565b73ffffffffffffffffffffffffffffffffffffffff161415611899576040517f08c379a000000000000000000000000000000000000000000000000000000000815260040161189090614a29565b60405180910390fd5b6001601060008585858181106118d8577f4e487b7100000000000000000000000000000000000000000000000000000000600052603260045260246000fd5b90506020020160208101906118ed9190613dd3565b73ffffffffffffffffffffffffffffffffffffffff1673ffffffffffffffffffffffffffffffffffffffff16815260200190815260200160002060006101000a81548160ff021916908315150217905550808061194990614eb7565b9150506117d1565b505050565b600d5481565b60155481565b61196a612870565b73ffffffffffffffffffffffffffffffffffffffff16611988611b68565b73ffffffffffffffffffffffffffffffffffffffff16146119de576040517f08c379a00000000000000000000000000000000000000000000000000000000081526004016119d590614a09565b60405180910390fd5b600b54811115611a23576040517f08c379a0000000000000000000000000000000000000000000000000000000008152600401611a1a90614929565b60405180910390fd5b60005b81811015611aa4576000611a4b6001611a3d610d87565b612c7690919063ffffffff16565b9050611a578482612ca2565b7fb9203d657e9c0ec8274c818292ab0f58b04e1970050716891770eb1bab5d655e8133604051611a88929190614b64565b60405180910390a1508080611a9c90614eb7565b915050611a26565b505050565b600e60009054906101000a900460ff1681565b601860009054906101000a900473ffffffffffffffffffffffffffffffffffffffff1681565b611aea612870565b73ffffffffffffffffffffffffffffffffffffffff16611b08611b68565b73ffffffffffffffffffffffffffffffffffffffff1614611b5e576040517f08c379a0000000000000000000000000000000000000000000000000000000008152600401611b5590614a09565b60405180910390fd5b80600c8190555050565b6000600660009054906101000a900473ffffffffffffffffffffffffffffffffffffffff16905090565b600f5481565b611ba0612870565b73ffffffffffffffffffffffffffffffffffffffff16611bbe611b68565b73ffffffffffffffffffffffffffffffffffffffff1614611c14576040517f08c379a0000000000000000000000000000000000000000000000000000000008152600401611c0b90614a09565b60405180910390fd5b818160169190611c25929190613add565b505050565b606060018054611c3990614e54565b80601f0160208091040260200160405190810160405280929190818152602001828054611c6590614e54565b8015611cb25780601f10611c8757610100808354040283529160200191611cb2565b820191906000526020600020905b815481529060010190602001808311611c9557829003601f168201915b5050505050905090565b611cce611cc7612870565b8383612d86565b5050565b611cda612870565b73ffffffffffffffffffffffffffffffffffffffff16611cf8611b68565b73ffffffffffffffffffffffffffffffffffffffff1614611d4e576040517f08c379a0000000000000000000000000000000000000000000000000000000008152600401611d4590614a09565b60405180910390fd5b80600f8190555050565b611d60612870565b73ffffffffffffffffffffffffffffffffffffffff16611d7e611b68565b73ffffffffffffffffffffffffffffffffffffffff1614611dd4576040517f08c379a0000000000000000000000000000000000000000000000000000000008152600401611dcb90614a09565b60405180910390fd5b60005b82829050811015611f5757600073ffffffffffffffffffffffffffffffffffffffff16838383818110611e33577f4e487b7100000000000000000000000000000000000000000000000000000000600052603260045260246000fd5b9050602002016020810190611e489190613dd3565b73ffffffffffffffffffffffffffffffffffffffff161415611e9f576040517f08c379a0000000000000000000000000000000000000000000000000000000008152600401611e9690614a29565b60405180910390fd5b600060106000858585818110611ede577f4e487b7100000000000000000000000000000000000000000000000000000000600052603260045260246000fd5b9050602002016020810190611ef39190613dd3565b73ffffffffffffffffffffffffffffffffffffffff1673ffffffffffffffffffffffffffffffffffffffff16815260200190815260200160002060006101000a81548160ff0219169083151502179055508080611f4f90614eb7565b915050611dd7565b505050565b611f6d611f67612870565b83612931565b611fac576040517f08c379a0000000000000000000000000000000000000000000000000000000008152600401611fa390614a69565b60405180910390fd5b611fb884848484612ef3565b50505050565b601360009054906101000a900460ff1681565b60178054611fde90614e54565b80601f016020809104026020016040519081016040528092919081815260200182805461200a90614e54565b80156120575780601f1061202c57610100808354040283529160200191612057565b820191906000526020600020905b81548152906001019060200180831161203a57829003601f168201915b505050505081565b606061206a82612804565b6120a9576040517f08c379a00000000000000000000000000000000000000000000000000000000081526004016120a090614ae9565b60405180910390fd5b60166120b483612f4f565b60176040516020016120c893929190614684565b6040516020818303038152906040529050919050565b600e60009054906101000a900460ff1661212d576040517f08c379a000000000000000000000000000000000000000000000000000000000815260040161212490614aa9565b60405180910390fd5b601060003373ffffffffffffffffffffffffffffffffffffffff1673ffffffffffffffffffffffffffffffffffffffff16815260200190815260200160002060009054906101000a900460ff166121b9576040517f08c379a00000000000000000000000000000000000000000000000000000000081526004016121b090614869565b60405180910390fd5b6014546121d6826121c8610d87565b612c7690919063ffffffff16565b1115612217576040517f08c379a000000000000000000000000000000000000000000000000000000000815260040161220e906149a9565b60405180910390fd5b6000811180156122295750600f548111155b612268576040517f08c379a000000000000000000000000000000000000000000000000000000000815260040161225f90614b29565b60405180910390fd5b600f546122bd82601160003373ffffffffffffffffffffffffffffffffffffffff1673ffffffffffffffffffffffffffffffffffffffff16815260200190815260200160002054612c7690919063ffffffff16565b11156122fe576040517f08c379a00000000000000000000000000000000000000000000000000000000081526004016122f590614ac9565b60405180910390fd5b61231381600c54612c8c90919063ffffffff16565b341015612355576040517f08c379a000000000000000000000000000000000000000000000000000000000815260040161234c906148c9565b60405180910390fd5b60005b8181101561242d57600061237d600161236f610d87565b612c7690919063ffffffff16565b90506001601160003373ffffffffffffffffffffffffffffffffffffffff1673ffffffffffffffffffffffffffffffffffffffff16815260200190815260200160002060008282546123cf9190614c77565b925050819055506123e03382612ca2565b7fb9203d657e9c0ec8274c818292ab0f58b04e1970050716891770eb1bab5d655e8133604051612411929190614b64565b60405180910390a150808061242590614eb7565b915050612358565b5050565b612439612870565b73ffffffffffffffffffffffffffffffffffffffff16612457611b68565b73ffffffffffffffffffffffffffffffffffffffff16146124ad576040517f08c379a00000000000000000000000000000000000000000000000000000000081526004016124a490614a09565b60405180910390fd5b80600d8190555050565b6124bf612870565b73ffffffffffffffffffffffffffffffffffffffff166124dd611b68565b73ffffffffffffffffffffffffffffffffffffffff1614612533576040517f08c379a000000000000000000000000000000000000000000000000000000000815260040161252a90614a09565b60405180910390fd5b8060179080519060200190612549929190613b63565b5050565b612555612870565b73ffffffffffffffffffffffffffffffffffffffff16612573611b68565b73ffffffffffffffffffffffffffffffffffffffff16146125c9576040517f08c379a00000000000000000000000000000000000000000000000000000000081526004016125c090614a09565b60405180910390fd5b80601360006101000a81548160ff02191690831515021790555050565b6000600560008473ffffffffffffffffffffffffffffffffffffffff1673ffffffffffffffffffffffffffffffffffffffff16815260200190815260200160002060008373ffffffffffffffffffffffffffffffffffffffff1673ffffffffffffffffffffffffffffffffffffffff16815260200190815260200160002060009054906101000a900460ff16905092915050565b60196020528060005260406000206000915090505481565b61269a612870565b73ffffffffffffffffffffffffffffffffffffffff166126b8611b68565b73ffffffffffffffffffffffffffffffffffffffff161461270e576040517f08c379a000000000000000000000000000000000000000000000000000000000815260040161270590614a09565b60405180910390fd5b600073ffffffffffffffffffffffffffffffffffffffff168173ffffffffffffffffffffffffffffffffffffffff16141561277e576040517f08c379a000000000000000000000000000000000000000000000000000000000815260040161277590614809565b60405180910390fd5b61278781612cc0565b50565b60007f780e9d63000000000000000000000000000000000000000000000000000000007bffffffffffffffffffffffffffffffffffffffffffffffffffffffff1916827bffffffffffffffffffffffffffffffffffffffffffffffffffffffff191614806127fd57506127fc826130fc565b5b9050919050565b60008073ffffffffffffffffffffffffffffffffffffffff166002600084815260200190815260200160002060009054906101000a900473ffffffffffffffffffffffffffffffffffffffff1673ffffffffffffffffffffffffffffffffffffffff1614159050919050565b600033905090565b816004600083815260200190815260200160002060006101000a81548173ffffffffffffffffffffffffffffffffffffffff021916908373ffffffffffffffffffffffffffffffffffffffff160217905550808273ffffffffffffffffffffffffffffffffffffffff166128eb836114c7565b73ffffffffffffffffffffffffffffffffffffffff167f8c5be1e5ebec7d5bd14f71427d1e84f3dd0314c0f7b2291e5b200ac8c7c3b92560405160405180910390a45050565b600061293c82612804565b61297b576040517f08c379a0000000000000000000000000000000000000000000000000000000008152600401612972906148e9565b60405180910390fd5b6000612986836114c7565b90508073ffffffffffffffffffffffffffffffffffffffff168473ffffffffffffffffffffffffffffffffffffffff1614806129f557508373ffffffffffffffffffffffffffffffffffffffff166129dd84610b94565b73ffffffffffffffffffffffffffffffffffffffff16145b80612a065750612a0581856125e6565b5b91505092915050565b8273ffffffffffffffffffffffffffffffffffffffff16612a2f826114c7565b73ffffffffffffffffffffffffffffffffffffffff1614612a85576040517f08c379a0000000000000000000000000000000000000000000000000000000008152600401612a7c90614829565b60405180910390fd5b600073ffffffffffffffffffffffffffffffffffffffff168273ffffffffffffffffffffffffffffffffffffffff161415612af5576040517f08c379a0000000000000000000000000000000000000000000000000000000008152600401612aec90614889565b60405180910390fd5b612b008383836131de565b612b0b600082612878565b6001600360008573ffffffffffffffffffffffffffffffffffffffff1673ffffffffffffffffffffffffffffffffffffffff1681526020019081526020016000206000828254612b5b9190614d58565b925050819055506001600360008473ffffffffffffffffffffffffffffffffffffffff1673ffffffffffffffffffffffffffffffffffffffff1681526020019081526020016000206000828254612bb29190614c77565b92505081905550816002600083815260200190815260200160002060006101000a81548173ffffffffffffffffffffffffffffffffffffffff021916908373ffffffffffffffffffffffffffffffffffffffff160217905550808273ffffffffffffffffffffffffffffffffffffffff168473ffffffffffffffffffffffffffffffffffffffff167fddf252ad1be2c89b69c2b068fc378daa952ba7f163c4a11628f55a4df523b3ef60405160405180910390a4612c718383836131ee565b505050565b60008183612c849190614c77565b905092915050565b60008183612c9a9190614cfe565b905092915050565b612cbc8282604051806020016040528060008152506131f3565b5050565b6000600660009054906101000a900473ffffffffffffffffffffffffffffffffffffffff16905081600660006101000a81548173ffffffffffffffffffffffffffffffffffffffff021916908373ffffffffffffffffffffffffffffffffffffffff1602179055508173ffffffffffffffffffffffffffffffffffffffff168173ffffffffffffffffffffffffffffffffffffffff167f8be0079c531659141344cd1fd0a4f28419497f9722a3daafe3b4186f6b6457e060405160405180910390a35050565b8173ffffffffffffffffffffffffffffffffffffffff168373ffffffffffffffffffffffffffffffffffffffff161415612df5576040517f08c379a0000000000000000000000000000000000000000000000000000000008152600401612dec906148a9565b60405180910390fd5b80600560008573ffffffffffffffffffffffffffffffffffffffff1673ffffffffffffffffffffffffffffffffffffffff16815260200190815260200160002060008473ffffffffffffffffffffffffffffffffffffffff1673ffffffffffffffffffffffffffffffffffffffff16815260200190815260200160002060006101000a81548160ff0219169083151502179055508173ffffffffffffffffffffffffffffffffffffffff168373ffffffffffffffffffffffffffffffffffffffff167f17307eab39ab6107e8899845ad3d59bd9653f200f220920489ca2b5937696c3183604051612ee6919061474c565b60405180910390a3505050565b612efe848484612a0f565b612f0a8484848461324e565b612f49576040517f08c379a0000000000000000000000000000000000000000000000000000000008152600401612f40906147e9565b60405180910390fd5b50505050565b60606000821415612f97576040518060400160405280600181526020017f300000000000000000000000000000000000000000000000000000000000000081525090506130f7565b600082905060005b60008214612fc9578080612fb290614eb7565b915050600a82612fc29190614ccd565b9150612f9f565b60008167ffffffffffffffff81111561300b577f4e487b7100000000000000000000000000000000000000000000000000000000600052604160045260246000fd5b6040519080825280601f01601f19166020018201604052801561303d5781602001600182028036833780820191505090505b5090505b600085146130f0576001826130569190614d58565b9150600a856130659190614f00565b60306130719190614c77565b60f81b8183815181106130ad577f4e487b7100000000000000000000000000000000000000000000000000000000600052603260045260246000fd5b60200101907effffffffffffffffffffffffffffffffffffffffffffffffffffffffffffff1916908160001a905350600a856130e99190614ccd565b9450613041565b8093505050505b919050565b60007f80ac58cd000000000000000000000000000000000000000000000000000000007bffffffffffffffffffffffffffffffffffffffffffffffffffffffff1916827bffffffffffffffffffffffffffffffffffffffffffffffffffffffff191614806131c757507f5b5e139f000000000000000000000000000000000000000000000000000000007bffffffffffffffffffffffffffffffffffffffffffffffffffffffff1916827bffffffffffffffffffffffffffffffffffffffffffffffffffffffff1916145b806131d757506131d6826133e5565b5b9050919050565b6131e983838361344f565b505050565b505050565b6131fd8383613563565b61320a600084848461324e565b613249576040517f08c379a0000000000000000000000000000000000000000000000000000000008152600401613240906147e9565b60405180910390fd5b505050565b600061326f8473ffffffffffffffffffffffffffffffffffffffff1661373d565b156133d8578373ffffffffffffffffffffffffffffffffffffffff1663150b7a02613298612870565b8786866040518563ffffffff1660e01b81526004016132ba9493929190614700565b602060405180830381600087803b1580156132d457600080fd5b505af192505050801561330557506040513d601f19601f820116820180604052508101906133029190614011565b60015b613388573d8060008114613335576040519150601f19603f3d011682016040523d82523d6000602084013e61333a565b606091505b50600081511415613380576040517f08c379a0000000000000000000000000000000000000000000000000000000008152600401613377906147e9565b60405180910390fd5b805181602001fd5b63150b7a0260e01b7bffffffffffffffffffffffffffffffffffffffffffffffffffffffff1916817bffffffffffffffffffffffffffffffffffffffffffffffffffffffff1916149150506133dd565b600190505b949350505050565b60007f01ffc9a7000000000000000000000000000000000000000000000000000000007bffffffffffffffffffffffffffffffffffffffffffffffffffffffff1916827bffffffffffffffffffffffffffffffffffffffffffffffffffffffff1916149050919050565b61345a838383613760565b600073ffffffffffffffffffffffffffffffffffffffff168373ffffffffffffffffffffffffffffffffffffffff16141561349d5761349881613765565b6134dc565b8173ffffffffffffffffffffffffffffffffffffffff168373ffffffffffffffffffffffffffffffffffffffff16146134db576134da83826137ae565b5b5b600073ffffffffffffffffffffffffffffffffffffffff168273ffffffffffffffffffffffffffffffffffffffff16141561351f5761351a8161391b565b61355e565b8273ffffffffffffffffffffffffffffffffffffffff168273ffffffffffffffffffffffffffffffffffffffff161461355d5761355c8282613a5e565b5b5b505050565b600073ffffffffffffffffffffffffffffffffffffffff168273ffffffffffffffffffffffffffffffffffffffff1614156135d3576040517f08c379a00000000000000000000000000000000000000000000000000000000081526004016135ca906149c9565b60405180910390fd5b6135dc81612804565b1561361c576040517f08c379a000000000000000000000000000000000000000000000000000000000815260040161361390614849565b60405180910390fd5b613628600083836131de565b6001600360008473ffffffffffffffffffffffffffffffffffffffff1673ffffffffffffffffffffffffffffffffffffffff16815260200190815260200160002060008282546136789190614c77565b92505081905550816002600083815260200190815260200160002060006101000a81548173ffffffffffffffffffffffffffffffffffffffff021916908373ffffffffffffffffffffffffffffffffffffffff160217905550808273ffffffffffffffffffffffffffffffffffffffff16600073ffffffffffffffffffffffffffffffffffffffff167fddf252ad1be2c89b69c2b068fc378daa952ba7f163c4a11628f55a4df523b3ef60405160405180910390a4613739600083836131ee565b5050565b6000808273ffffffffffffffffffffffffffffffffffffffff163b119050919050565b505050565b600980549050600a600083815260200190815260200160002081905550600981908060018154018082558091505060019003906000526020600020016000909190919091505550565b600060016137bb84611612565b6137c59190614d58565b90506000600860008481526020019081526020016000205490508181146138aa576000600760008673ffffffffffffffffffffffffffffffffffffffff1673ffffffffffffffffffffffffffffffffffffffff168152602001908152602001600020600084815260200190815260200160002054905080600760008773ffffffffffffffffffffffffffffffffffffffff1673ffffffffffffffffffffffffffffffffffffffff168152602001908152602001600020600084815260200190815260200160002081905550816008600083815260200190815260200160002081905550505b6008600084815260200190815260200160002060009055600760008573ffffffffffffffffffffffffffffffffffffffff1673ffffffffffffffffffffffffffffffffffffffff16815260200190815260200160002060008381526020019081526020016000206000905550505050565b6000600160098054905061392f9190614d58565b90506000600a6000848152602001908152602001600020549050600060098381548110613985577f4e487b7100000000000000000000000000000000000000000000000000000000600052603260045260246000fd5b9060005260206000200154905080600983815481106139cd577f4e487b7100000000000000000000000000000000000000000000000000000000600052603260045260246000fd5b906000526020600020018190555081600a600083815260200190815260200160002081905550600a6000858152602001908152602001600020600090556009805480613a42577f4e487b7100000000000000000000000000000000000000000000000000000000600052603160045260246000fd5b6001900381819060005260206000200160009055905550505050565b6000613a6983611612565b905081600760008573ffffffffffffffffffffffffffffffffffffffff1673ffffffffffffffffffffffffffffffffffffffff168152602001908152602001600020600083815260200190815260200160002081905550806008600084815260200190815260200160002081905550505050565b828054613ae990614e54565b90600052602060002090601f016020900481019282613b0b5760008555613b52565b82601f10613b2457803560ff1916838001178555613b52565b82800160010185558215613b52579182015b82811115613b51578235825591602001919060010190613b36565b5b509050613b5f9190613be9565b5090565b828054613b6f90614e54565b90600052602060002090601f016020900481019282613b915760008555613bd8565b82601f10613baa57805160ff1916838001178555613bd8565b82800160010185558215613bd8579182015b82811115613bd7578251825591602001919060010190613bbc565b5b509050613be59190613be9565b5090565b5b80821115613c02576000816000905550600101613bea565b5090565b6000613c19613c1484614bb2565b614b8d565b905082815260208101848484011115613c3157600080fd5b613c3c848285614e12565b509392505050565b6000613c57613c5284614be3565b614b8d565b905082815260208101848484011115613c6f57600080fd5b613c7a848285614e12565b509392505050565b600081359050613c91816156e3565b92915050565b60008083601f840112613ca957600080fd5b8235905067ffffffffffffffff811115613cc257600080fd5b602083019150836020820283011115613cda57600080fd5b9250929050565b600081359050613cf0816156fa565b92915050565b600081359050613d0581615711565b92915050565b600081519050613d1a81615711565b92915050565b600082601f830112613d3157600080fd5b8135613d41848260208601613c06565b91505092915050565b60008083601f840112613d5c57600080fd5b8235905067ffffffffffffffff811115613d7557600080fd5b602083019150836001820283011115613d8d57600080fd5b9250929050565b600082601f830112613da557600080fd5b8135613db5848260208601613c44565b91505092915050565b600081359050613dcd81615728565b92915050565b600060208284031215613de557600080fd5b6000613df384828501613c82565b91505092915050565b60008060408385031215613e0f57600080fd5b6000613e1d85828601613c82565b9250506020613e2e85828601613c82565b9150509250929050565b600080600060608486031215613e4d57600080fd5b6000613e5b86828701613c82565b9350506020613e6c86828701613c82565b9250506040613e7d86828701613dbe565b9150509250925092565b60008060008060808587031215613e9d57600080fd5b6000613eab87828801613c82565b9450506020613ebc87828801613c82565b9350506040613ecd87828801613dbe565b925050606085013567ffffffffffffffff811115613eea57600080fd5b613ef687828801613d20565b91505092959194509250565b60008060408385031215613f1557600080fd5b6000613f2385828601613c82565b9250506020613f3485828601613ce1565b9150509250929050565b60008060408385031215613f5157600080fd5b6000613f5f85828601613c82565b9250506020613f7085828601613dbe565b9150509250929050565b60008060208385031215613f8d57600080fd5b600083013567ffffffffffffffff811115613fa757600080fd5b613fb385828601613c97565b92509250509250929050565b600060208284031215613fd157600080fd5b6000613fdf84828501613ce1565b91505092915050565b600060208284031215613ffa57600080fd5b600061400884828501613cf6565b91505092915050565b60006020828403121561402357600080fd5b600061403184828501613d0b565b91505092915050565b6000806020838503121561404d57600080fd5b600083013567ffffffffffffffff81111561406757600080fd5b61407385828601613d4a565b92509250509250929050565b60006020828403121561409157600080fd5b600082013567ffffffffffffffff8111156140ab57600080fd5b6140b784828501613d94565b91505092915050565b6000602082840312156140d257600080fd5b60006140e084828501613dbe565b91505092915050565b6140f281614d9e565b82525050565b61410181614d8c565b82525050565b61411081614db0565b82525050565b600061412182614c29565b61412b8185614c3f565b935061413b818560208601614e21565b61414481614fed565b840191505092915050565b600061415a82614c34565b6141648185614c5b565b9350614174818560208601614e21565b61417d81614fed565b840191505092915050565b600061419382614c34565b61419d8185614c6c565b93506141ad818560208601614e21565b80840191505092915050565b600081546141c681614e54565b6141d08186614c6c565b945060018216600081146141eb57600181146141fc5761422f565b60ff1983168652818601935061422f565b61420585614c14565b60005b8381101561422757815481890152600182019150602081019050614208565b838801955050505b50505092915050565b6000614245601083614c5b565b915061425082614ffe565b602082019050919050565b6000614268601c83614c5b565b915061427382615027565b602082019050919050565b600061428b602b83614c5b565b915061429682615050565b604082019050919050565b60006142ae603283614c5b565b91506142b98261509f565b604082019050919050565b60006142d1602683614c5b565b91506142dc826150ee565b604082019050919050565b60006142f4602583614c5b565b91506142ff8261513d565b604082019050919050565b6000614317601c83614c5b565b91506143228261518c565b602082019050919050565b600061433a601f83614c5b565b9150614345826151b5565b602082019050919050565b600061435d602483614c5b565b9150614368826151de565b604082019050919050565b6000614380601983614c5b565b915061438b8261522d565b602082019050919050565b60006143a3601f83614c5b565b91506143ae82615256565b602082019050919050565b60006143c6602c83614c5b565b91506143d18261527f565b604082019050919050565b60006143e9600f83614c5b565b91506143f4826152ce565b602082019050919050565b600061440c600f83614c5b565b9150614417826152f7565b602082019050919050565b600061442f603883614c5b565b915061443a82615320565b604082019050919050565b6000614452602a83614c5b565b915061445d8261536f565b604082019050919050565b6000614475602983614c5b565b9150614480826153be565b604082019050919050565b6000614498602a83614c5b565b91506144a38261540d565b604082019050919050565b60006144bb602083614c5b565b91506144c68261545c565b602082019050919050565b60006144de602c83614c5b565b91506144e982615485565b604082019050919050565b6000614501602083614c5b565b915061450c826154d4565b602082019050919050565b6000614524601a83614c5b565b915061452f826154fd565b602082019050919050565b6000614547602183614c5b565b915061455282615526565b604082019050919050565b600061456a600083614c50565b915061457582615575565b600082019050919050565b600061458d603183614c5b565b915061459882615578565b604082019050919050565b60006145b0602c83614c5b565b91506145bb826155c7565b604082019050919050565b60006145d3601583614c5b565b91506145de82615616565b602082019050919050565b60006145f6601c83614c5b565b91506146018261563f565b602082019050919050565b6000614619601583614c5b565b915061462482615668565b602082019050919050565b600061463c600f83614c5b565b915061464782615691565b602082019050919050565b600061465f602083614c5b565b915061466a826156ba565b602082019050919050565b61467e81614e08565b82525050565b600061469082866141b9565b915061469c8285614188565b91506146a882846141b9565b9150819050949350505050565b60006146c08261455d565b9150819050919050565b60006020820190506146df60008301846140f8565b92915050565b60006020820190506146fa60008301846140e9565b92915050565b600060808201905061471560008301876140f8565b61472260208301866140f8565b61472f6040830185614675565b81810360608301526147418184614116565b905095945050505050565b60006020820190506147616000830184614107565b92915050565b60006020820190508181036000830152614781818461414f565b905092915050565b600060208201905081810360008301526147a281614238565b9050919050565b600060208201905081810360008301526147c28161425b565b9050919050565b600060208201905081810360008301526147e28161427e565b9050919050565b60006020820190508181036000830152614802816142a1565b9050919050565b60006020820190508181036000830152614822816142c4565b9050919050565b60006020820190508181036000830152614842816142e7565b9050919050565b600060208201905081810360008301526148628161430a565b9050919050565b600060208201905081810360008301526148828161432d565b9050919050565b600060208201905081810360008301526148a281614350565b9050919050565b600060208201905081810360008301526148c281614373565b9050919050565b600060208201905081810360008301526148e281614396565b9050919050565b60006020820190508181036000830152614902816143b9565b9050919050565b60006020820190508181036000830152614922816143dc565b9050919050565b60006020820190508181036000830152614942816143ff565b9050919050565b6000602082019050818103600083015261496281614422565b9050919050565b6000602082019050818103600083015261498281614445565b9050919050565b600060208201905081810360008301526149a281614468565b9050919050565b600060208201905081810360008301526149c28161448b565b9050919050565b600060208201905081810360008301526149e2816144ae565b9050919050565b60006020820190508181036000830152614a02816144d1565b9050919050565b60006020820190508181036000830152614a22816144f4565b9050919050565b60006020820190508181036000830152614a4281614517565b9050919050565b60006020820190508181036000830152614a628161453a565b9050919050565b60006020820190508181036000830152614a8281614580565b9050919050565b60006020820190508181036000830152614aa2816145a3565b9050919050565b60006020820190508181036000830152614ac2816145c6565b9050919050565b60006020820190508181036000830152614ae2816145e9565b9050919050565b60006020820190508181036000830152614b028161460c565b9050919050565b60006020820190508181036000830152614b228161462f565b9050919050565b60006020820190508181036000830152614b4281614652565b9050919050565b6000602082019050614b5e6000830184614675565b92915050565b6000604082019050614b796000830185614675565b614b8660208301846140f8565b9392505050565b6000614b97614ba8565b9050614ba38282614e86565b919050565b6000604051905090565b600067ffffffffffffffff821115614bcd57614bcc614fbe565b5b614bd682614fed565b9050602081019050919050565b600067ffffffffffffffff821115614bfe57614bfd614fbe565b5b614c0782614fed565b9050602081019050919050565b60008190508160005260206000209050919050565b600081519050919050565b600081519050919050565b600082825260208201905092915050565b600081905092915050565b600082825260208201905092915050565b600081905092915050565b6000614c8282614e08565b9150614c8d83614e08565b9250827fffffffffffffffffffffffffffffffffffffffffffffffffffffffffffffffff03821115614cc257614cc1614f31565b5b828201905092915050565b6000614cd882614e08565b9150614ce383614e08565b925082614cf357614cf2614f60565b5b828204905092915050565b6000614d0982614e08565b9150614d1483614e08565b9250817fffffffffffffffffffffffffffffffffffffffffffffffffffffffffffffffff0483118215151615614d4d57614d4c614f31565b5b828202905092915050565b6000614d6382614e08565b9150614d6e83614e08565b925082821015614d8157614d80614f31565b5b828203905092915050565b6000614d9782614de8565b9050919050565b6000614da982614de8565b9050919050565b60008115159050919050565b60007fffffffff0000000000000000000000000000000000000000000000000000000082169050919050565b600073ffffffffffffffffffffffffffffffffffffffff82169050919050565b6000819050919050565b82818337600083830152505050565b60005b83811015614e3f578082015181840152602081019050614e24565b83811115614e4e576000848401525b50505050565b60006002820490506001821680614e6c57607f821691505b60208210811415614e8057614e7f614f8f565b5b50919050565b614e8f82614fed565b810181811067ffffffffffffffff82111715614eae57614ead614fbe565b5b80604052505050565b6000614ec282614e08565b91507fffffffffffffffffffffffffffffffffffffffffffffffffffffffffffffffff821415614ef557614ef4614f31565b5b600182019050919050565b6000614f0b82614e08565b9150614f1683614e08565b925082614f2657614f25614f60565b5b828206905092915050565b7f4e487b7100000000000000000000000000000000000000000000000000000000600052601160045260246000fd5b7f4e487b7100000000000000000000000000000000000000000000000000000000600052601260045260246000fd5b7f4e487b7100000000000000000000000000000000000000000000000000000000600052602260045260246000fd5b7f4e487b7100000000000000000000000000000000000000000000000000000000600052604160045260246000fd5b6000601f19601f8301169050919050565b7f57726f6e67206d696e7420707269636500000000000000000000000000000000600082015250565b7f43616e206f6e6c79206d696e7420757020746f203520746f6b656e7300000000600082015250565b7f455243373231456e756d657261626c653a206f776e657220696e646578206f7560008201527f74206f6620626f756e6473000000000000000000000000000000000000000000602082015250565b7f4552433732313a207472616e7366657220746f206e6f6e20455243373231526560008201527f63656976657220696d706c656d656e7465720000000000000000000000000000602082015250565b7f4f776e61626c653a206e6577206f776e657220697320746865207a65726f206160008201527f6464726573730000000000000000000000000000000000000000000000000000602082015250565b7f4552433732313a207472616e736665722066726f6d20696e636f72726563742060008201527f6f776e6572000000000000000000000000000000000000000000000000000000602082015250565b7f4552433732313a20746f6b656e20616c7265616479206d696e74656400000000600082015250565b7f596f7520617265206e6f74206f6e207468652050726573616c65204c69737400600082015250565b7f4552433732313a207472616e7366657220746f20746865207a65726f2061646460008201527f7265737300000000000000000000000000000000000000000000000000000000602082015250565b7f4552433732313a20617070726f766520746f2063616c6c657200000000000000600082015250565b7f45746865722076616c75652073656e74206973206e6f7420636f727265637400600082015250565b7f4552433732313a206f70657261746f7220717565727920666f72206e6f6e657860008201527f697374656e7420746f6b656e0000000000000000000000000000000000000000602082015250565b7f53616c65206e6f74206163746976650000000000000000000000000000000000600082015250565b7f4e6f2072657365727665206c6566740000000000000000000000000000000000600082015250565b7f4552433732313a20617070726f76652063616c6c6572206973206e6f74206f7760008201527f6e6572206e6f7220617070726f76656420666f7220616c6c0000000000000000602082015250565b7f4552433732313a2062616c616e636520717565727920666f7220746865207a6560008201527f726f206164647265737300000000000000000000000000000000000000000000602082015250565b7f4552433732313a206f776e657220717565727920666f72206e6f6e657869737460008201527f656e7420746f6b656e0000000000000000000000000000000000000000000000602082015250565b7f507572636861736520776f756c6420657863656564206d617820737570706c7960008201527f206f6620746f6b656e7300000000000000000000000000000000000000000000602082015250565b7f4552433732313a206d696e7420746f20746865207a65726f2061646472657373600082015250565b7f4552433732313a20617070726f76656420717565727920666f72206e6f6e657860008201527f697374656e7420746f6b656e0000000000000000000000000000000000000000602082015250565b7f4f776e61626c653a2063616c6c6572206973206e6f7420746865206f776e6572600082015250565b7f43616e27742061646420746865206e756c6c2061646472657373000000000000600082015250565b7f4552433732313a20617070726f76616c20746f2063757272656e74206f776e6560008201527f7200000000000000000000000000000000000000000000000000000000000000602082015250565b50565b7f4552433732313a207472616e736665722063616c6c6572206973206e6f74206f60008201527f776e6572206e6f7220617070726f766564000000000000000000000000000000602082015250565b7f455243373231456e756d657261626c653a20676c6f62616c20696e646578206f60008201527f7574206f6620626f756e64730000000000000000000000000000000000000000602082015250565b7f50726573616c65206973206e6f74206163746976650000000000000000000000600082015250565b7f50757263686173652065786365656473206d617820616c6c6f77656400000000600082015250565b7f546f6b656e20646f6573206e6f74206578697374210000000000000000000000600082015250565b7f7769746864726177206661696c65640000000000000000000000000000000000600082015250565b7f43616e6e6f742070757263686173652074686973206d616e7920746f6b656e73600082015250565b6156ec81614d8c565b81146156f757600080fd5b50565b61570381614db0565b811461570e57600080fd5b50565b61571a81614dbc565b811461572557600080fd5b50565b61573181614e08565b811461573c57600080fd5b5056fea264697066735822122059c31d2a7b0395ae6f8e1bd7e70e7a55d4f27173df3342dc51261078c26b9d3a64736f6c63430008040033",
  "linkReferences": {},
  "deployedLinkReferences": {}
}